:100000000A128A11EE2FFF1B0D2883137F18831706
:100010000008840A0319FF0A080000308A00040857
:10002000840A82070034573465346C3463346F3487
:100030006D346534203474346F3420344C34693476
:10004000673468347434003450346F347734653432
:100050007234653464342034623479342034533457
:0E0060004C34543443340034253464340034BA
:1008A8004130831203139F008030831603139F0087
:1008B800080000300A128A117D240A128A110130B8
:1008C8000A128A117D240A128A1108007E088A00F9
:1008D8007F0882000A128A116A240A128A1180008B
:1008E800840A04087D0603190034FF0A0319FE0A66
:1008F8006E2CF30083120313081173080A128A116D
:1009080097240A128A118312031388150B30F200F8
:100918006230F100F10B8E2CF20B8E2C000083124A
:10092800031388110800F000701C9B2C9C2CA02C31
:10093800831203130816A32C831203130812F01C46
:10094800A62CA72CA92C8816AA2C8812701DAD2CB1
:10095800AE2CB02C0817B12C0813F01DB42CB52CF4
:10096800B72C8817B82C88130800F40074080F39BE
:10097800F2007408F039F3008312031308157308A2
:10098800F10004300310F10CFF3E031DC62C710862
:100998000A128A1197240A128A11831203138815DE
:1009A8001A30F100F10BD62C0000831203138811C2
:1009B80072080A128A1197240A128A1183120313E1
:1009C80088151A30F100F10BE72C0000831203138D
:1009D80088110800F11BF12CF22CFF2C7108803AC9
:1009E800FF0080307F02031DFB2C08307002031CBF
:1009F800FE2CFF2C022DF001F101272DC530FF0040
:100A08007F08831203139F057008F2000230031059
:100A1800F20DFF3E031D0B2D0310720DFF007F0822
:100A28009F041330F200F20B172D1A2D83120313B3
:100A38001F151F19202D212D1D2D1E08F1008316AD
:100A480003131E08F0000800063400340034003494
:100A580006340034013400340634003402340034DF
:100A680006340034033400340634003404340034CB
:100A780006340034053400340634003406340034B7
:100A880006340034073400340534003400340034AC
:100A980005340034013400340534003402340034A1
:100AA800053400340334003405340034043400348D
:100AB800053400340534003409340034003400347B
:100AC8000934003401340034FA01FB018D2D7A0811
:100AD8007507F8007608F7000318F70AFA1F752D4E
:100AE800F7037708F900790883120313FF007808E1
:100AF80084000A128A1103200A128A110A128A1122
:100B0800B9240A128A110130FA070318FB0A0030C7
:100B1800FB077A087507F8007608F7000318F70A44
:100B2800FA1F972DF7037708F90079088312031342
:100B3800FF00780884000A128A1103200A128A1119
:100B4800003A031DA82DA92D6B2D0800F600760389
:100B5800031DAF2DB02DCD2D74087F3EF900790807
:100B6800F50004300310F50CFF3E031DB62D750883
:100B7800F70079080F39F80077080A128A117D24DE
:100B88000A128A1178080A128A117D240A128A1117
:100B9800EF2D02307606031DD22DD32DEF2D7408CC
:100BA800BF3EF9007908F50004300310F50CFF3E4C
:100BB800031DD92D7508F70079080F39F800770853
:100BC8000A128A117D240A128A1178080A128A11D7
:100BD8007D240A128A110800831603138801003045
:100BE8000A128A1197240A128A113430F500F1305A
:100BF800F400F40BFD2DF50BFD2D022E03300A1227
:100C08008A117D240A128A110D30F500FB30F40098
:100C1800F40B0C2EF50B0C2E112E03300A128A1130
:100C28007D240A128A111D30F5009130F400F40B6E
:100C38001B2EF50B1B2E03300A128A117D240A1273
:100C48008A1102300A128A117D240A128A1102308E
:100C58000A128A117D240A128A1108300A128A118E
:100C68007D240A128A1100300A128A117D240A1280
:100C78008A110C300A128A117D240A128A11003056
:100C88000A128A117D240A128A1106300A128A1160
:100C98007D240A128A1108000A128A11F0250A1204
:100CA8008A110A128A115D240A128A11F401F40ABF
:100CB80001300A128A11AA250A128A110130F50098
:100CC8008030F6000A128A1168250A128A11F40186
:100CD800F40A02300A128A11AA250A128A1112305D
:100CE800F5008030F6000A128A1168250A128A1166
:100CF8000A128A1154240A128A11FF308316031328
:100D0800850086010710831203138601071025301A
:100D18008400C030A0000408A1002030A2002008F0
:100D2800840083130008A300A00A21088400230874
:100D38008000A10AA20B932E45308400A030A000A9
:100D48000408A1002030A2002008840083130008B2
:100D5800A300A00A2108840023088000A10AA20B8E
:100D6800A82E83120313E701E8018312031367080F
:100D7800A00001300310A00DFF3E031DBE2E03107E
:100D8800200D453E840083130008A100840A000852
:100D9800A200210884008317221C831380010130DC
:100DA800E7070318E80A0030E8076808803AFF00F8
:100DB80080307F02031DE22E08306702031CE52EF7
:100DC800E62EB92E83120313ED01EE0183120313ED
:100DD8006E08F1006D08F0000A128A11EE240A125A
:100DE8008A11710883120313E6007008E50066088B
:100DF800803AFF0082307F02031D042F0130650214
:100E0800031C072F082FC72F831203136E08EA004D
:100E18006D08E900482F013083120313A000690808
:100E2800A10001300310A10DFF3E031D162F031072
:100E3800210D023E453E84008313000A252F03102E
:100E4800A00DFF3E031D232F2008FF006908A20004
:100E580001300310A20DFF3E031D2D2F0310220D9C
:100E6800453E84000008A300840A0008A400230863
:100E780084008317241C83137F0880040130E9074A
:100E88000318EA0A0030EA076D08013EA0006E0860
:100E98000318013E003EA1002108803AA2006A081A
:100EA800803A2202031D5A2F69082002031C5D2F75
:100EB8005E2F6D2F831203136A08803AFF0080307B
:100EC8007F02031D692F08306902031C6C2F6D2FE8
:100ED8000F2F831203136E08EC006D08EB00AB2F85
:100EE8000130A0006B08A10001300310A10DFF3EE6
:100EF800031D792F0310210D023E453E8400831304
:100F0800000A882F0310A00DFF3E031D862F20081E
:100F1800FF006B08A20001300310A20DFF3E031D65
:100F2800902F0310220D453E84000008A300840A78
:100F38000008A400230884008317241C83137F0857
:100F48008004FF30EB070318EC0AFF30EC076D084C
:100F5800FF3EA0006E080318013EFF3EA1006C088A
:100F6800803AA2002108803A2202031DBD2F2008E2
:100F78006B02031CC02FC12FC72F83120313EC1F52
:100F8800C62FC72F742F013083120313ED070318E0
:100F9800EE0A0030EE076E08803AFF0080307F02CC
:100FA800031DD82F08306D02031CDB2FDC2FEA2E1F
:100FB8000B3083120313A2002630A1005D30A0007D
:100FC800A00BE42FA10BE42FA20BE42FB52E0A12DD
:100FD8008A1100288313E030FD000530FE00283018
:100FE800FF00A03084000A128A116E240A128A11A6
:080FF80083010A128A11502E38
:02400E007A3FF7
:00000001FF
