:100000000A128A11EE2FFF1B0D2883137F18831706
:100010000008840A0319FF0A080000308A00040857
:10002000840A82070034573465346C3463346F3487
:100030006D346534203474346F3420344C34693476
:10004000673468347434003449346E34763461343F
:100050006C34693464342034533465347234693414
:1000600061346C342034003450346F347734653468
:100070007234653464342034623479342034533437
:0E0080004C345434433400342534643400349A
:1006EA00831203131A0808004130831203139F0070
:1006FA008030831603139F00080000300A128A1103
:10070A00D0230A128A1101300A128A11D0230A123E
:10071A008A110800831603138717871B952B992BB9
:10072A008316031307179C2B83160313071308005A
:10073A00831203138C1EA22BA32BA92B8C1201301C
:10074A00F0000030F100AB2BF001F101080020307D
:10075A008316031398009030831203139800113004
:10076A00831603139900831203138C120C120800C8
:10077A007E088A007F0882000A128A11BD230A12A3
:10078A008A118000840A04087D0603190034FF0ACE
:10079A000319FE0AC12BF30083120313071373080C
:1007AA000A128A11EA230A128A118312031387177B
:1007BA000B30F2006230F100F10BE12BF20BE12B6E
:1007CA0000008312031387130800F000701CEE2B3D
:1007DA00EF2BF32B831203130816F62B8312031342
:1007EA000812F01CF92BFA2BFC2B8816FD2B881209
:1007FA00701D002C012C032C0817042C0813F01D63
:10080A00072C082C0A2C88170B2C88130800F400D4
:10081A0074080F39F2007408F039F30083120313D5
:10082A0007177308F10004300310F10CFF3E031D93
:10083A00192C71080A128A11EA230A128A118312E0
:10084A00031387171A30F100F10B292C00008312C9
:10085A000313871372080A128A11EA230A128A11E9
:10086A008312031387171A30F100F10B3A2C000098
:10087A008312031387130800F11B442C452C522CB6
:10088A007108803AFF0080307F02031D4E2C083029
:10089A007002031C512C522C552CF001F1017A2CB8
:1008AA00C530FF007F08831203139F057008F2000A
:1008BA0002300310F20DFF3E031D5E2C0310720D71
:1008CA00FF007F089F041330F200F20B6A2C6D2C94
:1008DA00831203131F151F19732C742C702C1E08F6
:1008EA00F100831603131E08F000080006340034D2
:1008FA000034003406340034013400340634003441
:10090A00023400340634003403340034063400342C
:10091A000434003406340034053400340634003418
:10092A000634003406340034073400340534003405
:10093A000034003405340034013400340534003402
:10094A0002340034053400340334003405340034EE
:10095A0004340034053400340534003409340034D6
:10096A00003400340934003401340034FA01FB0144
:10097A00E02C7A087507F8007608F7000318F70ADA
:10098A00FA1FC82CF7037708F900790883120313B2
:10099A00FF00780884000A128A1103200A128A11B9
:1009AA000A128A110C240A128A110130FA07031852
:1009BA00FB0A0030FB077A087507F8007608F7008B
:1009CA000318F70AFA1FEA2CF7037708F9007908DF
:1009DA0083120313FF00780884000A128A11032085
:1009EA000A128A11003A031DFB2CFC2CBE2C0800AB
:1009FA00F6007603031D022D032D202D74087F3E79
:100A0A00F9007908F50004300310F50CFF3E031DC8
:100A1A00092D7508F70079080F39F80077080A12C6
:100A2A008A11D0230A128A1178080A128A11D0234D
:100A3A000A128A11422D02307606031D252D262D13
:100A4A00422D7408BF3EF9007908F50004300310FE
:100A5A00F50CFF3E031D2C2D7508F70079080F3998
:100A6A00F80077080A128A11D0230A128A11780824
:100A7A000A128A11D0230A128A1108008316031354
:100A8A00880100300A128A11EA230A128A113430C4
:100A9A00F500F130F400F40B502DF50B502D552DC7
:100AAA0003300A128A11D0230A128A110D30F50076
:100ABA00FB30F400F40B5F2DF50B5F2D642D033032
:100ACA000A128A11D0230A128A111D30F5009130B8
:100ADA00F400F40B6E2DF50B6E2D03300A128A11F9
:100AEA00D0230A128A1102300A128A11D0230A125A
:100AFA008A1102300A128A11D0230A128A11083086
:100B0A000A128A11D0230A128A1100300A128A1193
:100B1A00D0230A128A110C300A128A11D0230A121F
:100B2A008A1100300A128A11D0230A128A11063059
:100B3A000A128A11D0230A128A110800700371045A
:100B4A00031DA82DA92DD82DF501F6017508F2006F
:100B5A0001300310F20DFF3E031DAE2D0310720D7E
:100B6A00203E840083130008F300840A0008F4007E
:100B7A00730884008317741C8313FF3080000130CC
:100B8A00F5070318F60A0030F6077608803AFF00E0
:100B9A0080307F02031DD32D08307502031CD62D29
:100BAA00D72DAB2D052EF701F8017708F200013099
:100BBA000310F20DFF3E031DDD2D0310720D203EC2
:100BCA00840083130008F300840A0008F400730801
:100BDA0084008317741C831380010130F7070318FC
:100BEA00F80A0030F8077808803AFF0080307F0260
:100BFA00031D012E08307702031C042E052EDA2D60
:100C0A000800831603138801071387130A128A112F
:100C1A008F230A128A110A128A11AC230A128A1124
:100C2A000A128A1143250A128A110A128A11822388
:100C3A000A128A11F401F40A01300A128A11FD24F7
:100C4A000A128A110130F5008030F6000A128A1160
:100C5A00BB240A128A11F401F40A02300A128A1118
:100C6A00FD240A128A112230F5008030F6000A1299
:100C7A008A11BB240A128A111F3083120313EC0053
:100C8A007130EB001D30EA00EA0B492EEB0B492EBE
:100C9A00EC0B492E502E0A128A1179230A128A1154
:100CAA00FF3083160313850086010710831203138E
:100CBA00860107104130FC000A128A119D230A128C
:100CCA008A117008710403196B2E6C2EA42E0A1255
:100CDA008A1175230A128A11FC00A42E0A128A119B
:100CEA00C8260A128A11B92E0130F0000030F1002C
:100CFA000A128A11A3250A128A11B92E0030F000AD
:100D0A00F1000A128A11A3250A128A11B92EF401D6
:100D1A00F40A02300A128A11FD240A128A111230C8
:100D2A00F5008030F6000A128A11BB240A128A11D1
:100D3A007C080A128A110C240A128A11B92E7C081C
:100D4A0083120313EA00EB016B08003A0319AE2E73
:100D5A008C2E6A08413A0319732E073A0319832E17
:100D6A00093A0319792E8C2E1A3083120313EB00D9
:100D7A00F730EA00EA0BBF2EEB0BBF2EC42E612E12
:100D8A000A128A11002883120313E201E301831273
:100D9A0003136208F30001300310F30DFF3E031D35
:100DAA00D12E0310730D203E840083130008F40033
:100DBA00840A0008F500740884008317751C8313DD
:100DCA0080010130E2070318E30A0030E3076308F1
:100DDA00803AFF0080307F02031DF52E0830620240
:100DEA00031CF82EF92ECC2E83120313E801E90115
:100DFA00831203136908F1006808F0000A128A11C5
:100E0A0041240A128A11710883120313E10070083F
:100E1A00E0006108803AFF0082307F02031D172F2D
:100E2A00BC30600203181A2F1B2FD82F831203130A
:100E3A006908E5006808E4005A2F0130F3008312BC
:100E4A0003136408F40001300310F40DFF3E031D80
:100E5A00292F0310740D223E84008313000A372FB2
:100E6A000310F30DFF3E031D352F7308FF006408BE
:100E7A00F50001300310F50DFF3E031D3F2F03104F
:100E8A00750D203E84000008F600840A0008F70069
:100E9A00760884008317771C83137F088004013047
:100EAA00E4070318E50A0030E5076808013EF30085
:100EBA0069080318013E003EF4007408803AF50000
:100ECA006508803A7502031D6C2F64087302031CBF
:100EDA006F2F702F7F2F831203136508803AFF004C
:100EEA0080307F02031D7B2F08306402031C7E2F93
:100EFA007F2F222F831203136908E7006808E60090
:100F0A00BC2F0130F3006608F40001300310F40D21
:100F1A00FF3E031D8B2F0310740D223E84008313A2
:100F2A00000A992F0310F30DFF3E031D972F730834
:100F3A00FF006608F50001300310F50DFF3E031DA2
:100F4A00A12F0310750D203E84000008F600840AC4
:100F5A000008F700760884008317771C83137F083C
:100F6A008004FF30E6070318E70AFF30E70768083E
:100F7A00FF3EF30069080318013EFF3EF4006708CC
:100F8A00803AF5007408803A7502031DCE2F730863
:100F9A006602031CD12FD22FD82F83120313E71F07
:100FAA00D72FD82F862F013083120313E80703188F
:100FBA00E90A0030E9076908803AFF0080307F02B9
:100FCA00031DE92F08306802031CEC2FED2FFD2EBC
:100FDA00080083136030FD000430FE007B30FF0000
:100FEA00203084000A128A11C1230A128A1183014D
:060FFA000A128A11062E06
:02400E007A3FF7
:00000001FF
