:100000000A128A11EE2FFF1B0D2883137F18831706
:100010000008840A0319FF0A080000308A00040857
:10002000840A82070034573465346C3463346F3487
:100030006D346534203474346F3420344C34693476
:10004000673468347434003450346F347734653432
:100050007234653464342034623479342034533457
:0E0060004C34543443340034253464340034BA
:100886004130831203139F008030831603139F00A9
:10089600080000300A128A116C240A128A110130EB
:1008A6000A128A116C240A128A1108007E088A002C
:1008B6007F0882000A128A1159240A128A118000BE
:1008C600840A04087D0603190034FF0A0319FE0A88
:1008D6005D2CF30083120313071373080A128A119F
:1008E60086240A128A118312031387170B30F2002B
:1008F6006230F100F10B7D2CF20B7D2C000083128F
:10090600031387130800F000701C8A2C8B2C8F2C85
:10091600831203130816922C831203130812F01C79
:10092600952C962C982C8816992C8812701D9C2C28
:100936009D2C9F2C0817A02C0813F01DA32CA42C6B
:10094600A62C8817A72C88130800F40074080F3902
:10095600F2007408F039F3008312031307177308C3
:10096600F10004300310F10CFF3E031DB52C710895
:100976000A128A1186240A128A1183120313871710
:100986001A30F100F10BC52C0000831203138713F4
:1009960072080A128A1186240A128A118312031314
:1009A60087171A30F100F10BD62C000083120313BF
:1009B60087130800F11BE02CE12CEE2C7108803A1D
:1009C600FF0080307F02031DEA2C08307002031CF2
:1009D600ED2CEE2CF12CF001F101162DC530FF00A7
:1009E6007F08831203139F057008F200023003107C
:1009F600F20DFF3E031DFA2C0310720DFF007F0857
:100A06009F041330F200F20B062D092D83120313F7
:100A16001F151F190F2D102D0C2D1E08F100831602
:100A260003131E08F00008000634003400340034B6
:100A36000634003401340034063400340234003401
:100A460006340034033400340634003404340034ED
:100A560006340034053400340634003406340034D9
:100A660006340034073400340534003400340034CE
:100A760005340034013400340534003402340034C3
:100A860005340034033400340534003404340034AF
:100A9600053400340534003409340034003400349D
:100AA6000934003401340034FA01FB017C2D7A0844
:100AB6007507F8007608F7000318F70AFA1F642D81
:100AC600F7037708F900790883120313FF00780803
:100AD60084000A128A1103200A128A110A128A1144
:100AE600A8240A128A110130FA070318FB0A0030FB
:100AF600FB077A087507F8007608F7000318F70A67
:100B0600FA1F862DF7037708F90079088312031375
:100B1600FF00780884000A128A1103200A128A113B
:100B2600003A031D972D982D5A2D0800F6007603DE
:100B3600031D9E2D9F2DBC2D74087F3EF90079085C
:100B4600F50004300310F50CFF3E031DA52D7508B6
:100B5600F70079080F39F80077080A128A116C2411
:100B66000A128A1178080A128A116C240A128A114A
:100B7600DE2D02307606031DC12DC22DDE2D740832
:100B8600BF3EF9007908F50004300310F50CFF3E6E
:100B9600031DC82D7508F70079080F39F800770886
:100BA6000A128A116C240A128A1178080A128A110A
:100BB6006C240A128A110800831603138801003078
:100BC6000A128A1186240A128A113430F500F1308D
:100BD600F400F40BEC2DF50BEC2DF12D03300A127D
:100BE6008A116C240A128A110D30F500FB30F400CC
:100BF600F40BFB2DF50BFB2D002E03300A128A1188
:100C06006C240A128A111D30F5009130F400F40BA1
:100C16000A2EF50B0A2E03300A128A116C240A12C8
:100C26008A1102300A128A116C240A128A110230C1
:100C36000A128A116C240A128A1108300A128A11C1
:100C46006C240A128A1100300A128A116C240A12C4
:100C56008A110C300A128A116C240A128A11003089
:100C66000A128A116C240A128A1106300A128A1193
:100C76006C240A128A1108008316031388010713CD
:100C860087130A128A11DF250A128A110A128A119B
:100C96004C240A128A11F401F40A01300A128A114C
:100CA60099250A128A110130F5008030F6000A12E1
:100CB6008A1157250A128A11F401F40A02300A121F
:100CC6008A1199250A128A111230F5008030F60031
:100CD6000A128A1157250A128A111F30831203132A
:100CE600A2007130A1001D30A000A00B782EA10B30
:100CF600782EA20B782E7F2E0A128A1143240A120E
:100D06008A11FF30831603138500860107108312AC
:100D160003138601071025308400C030A0000408A4
:100D2600A1002030A2002008840083130008A3003D
:100D3600A00A2108840023088000A10AA20B962E8F
:100D460045308400A030A0000408A1002030A20095
:100D56002008840083130008A300A00A2108840049
:100D660023088000A10AA20BAB2E83120313E7010E
:100D7600E801831203136708A00001300310A00DD9
:100D8600FF3E031DC12E0310200D453E8400831334
:100D96000008A100840A0008A20021088400831725
:100DA600221C831380010130E7070318E80A00308C
:100DB600E8076808803AFF0080307F02031DE52EB1
:100DC60008306702031CE82EE92EBC2E831203139B
:100DD600ED01EE01831203136E08F1006D08F000B9
:100DE6000A128A11DD240A128A117108831203136A
:100DF600E6007008E5006608803AFF0082307F0250
:100E0600031D072FBC30650203180A2F0B2FCA2FAC
:100E1600831203136E08EA006D08E9004B2F0130B8
:100E260083120313A0006908A10001300310A10D6D
:100E3600FF3E031D192F0310210D023E453E84007F
:100E46008313000A282F0310A00DFF3E031D262F33
:100E56002008FF006908A20001300310A20DFF3E22
:100E6600031D302F0310220D453E84000008A30009
:100E7600840A0008A400230884008317241C831313
:100E86007F0880040130E9070318EA0A0030EA0700
:100E96006D08013EA0006E080318013E003EA10049
:100EA6002108803AA2006A08803A2202031D5D2FBB
:100EB60069082002031C602F612F702F8312031311
:100EC6006A08803AFF0080307F02031D6C2F0830CD
:100ED6006902031C6F2F702F122F831203136E08E3
:100EE600EC006D08EB00AE2F0130A0006B08A100EE
:100EF60001300310A10DFF3E031D7C2F0310210DB1
:100F0600023E453E84008313000A8B2F0310A00D7A
:100F1600FF3E031D892F2008FF006B08A200013049
:100F26000310A20DFF3E031D932F0310220D453E15
:100F360084000008A300840A0008A4002308840093
:100F46008317241C83137F088004FF30EB070318E4
:100F5600EC0AFF30EC076D08FF3EA0006E08031890
:100F6600013EFF3EA1006C08803AA2002108803AAB
:100F76002202031DC02F20086B02031CC32FC42F9F
:100F8600CA2F83120313EC1FC92FCA2F772F0130E4
:100F960083120313ED070318EE0A0030EE076E08FE
:100FA600803AFF0080307F02031DDB2F08306D0280
:100FB600031CDE2FDF2FED2E1A3083120313A10040
:100FC600F730A000A00BE52FA10BE52FEA2FB82ED6
:100FD6000A128A1100288313E030FD000530FE0056
:100FE6001730FF00A03084000A128A115D240A120D
:0A0FF6008A1183010A128A113F2EAE
:02400E007A3FF7
:00000001FF
